{
  "_format": "hh-sol-artifact-1",
  "contractName": "TellorLab",
  "sourceName": "contracts/testing/TellorLab.sol",
  "abi": [
    {
      "anonymous": false,
      "inputs": [
        {
          "indexed": true,
          "internalType": "bytes32",
          "name": "queryId",
          "type": "bytes32"
        },
        {
          "components": [
            {
              "internalType": "bytes32",
              "name": "queryId",
              "type": "bytes32"
            },
            {
              "components": [
                {
                  "internalType": "bytes",
                  "name": "value",
                  "type": "bytes"
                },
                {
                  "internalType": "uint256",
                  "name": "timestamp",
                  "type": "uint256"
                },
                {
                  "internalType": "uint256",
                  "name": "aggregatePower",
                  "type": "uint256"
                },
                {
                  "internalType": "uint256",
                  "name": "previousTimestamp",
                  "type": "uint256"
                },
                {
                  "internalType": "uint256",
                  "name": "nextTimestamp",
                  "type": "uint256"
                },
                {
                  "internalType": "uint256",
                  "name": "lastConsensusTimestamp",
                  "type": "uint256"
                }
              ],
              "internalType": "struct ReportData",
              "name": "report",
              "type": "tuple"
            },
            {
              "internalType": "uint256",
              "name": "attestationTimestamp",
              "type": "uint256"
            }
          ],
          "indexed": false,
          "internalType": "struct OracleAttestationData",
          "name": "attestData",
          "type": "tuple"
        }
      ],
      "name": "OracleUpdated",
      "type": "event"
    },
    {
      "inputs": [
        {
          "internalType": "bytes32",
          "name": "",
          "type": "bytes32"
        },
        {
          "internalType": "uint256",
          "name": "",
          "type": "uint256"
        }
      ],
      "name": "data",
      "outputs": [
        {
          "internalType": "bytes",
          "name": "value",
          "type": "bytes"
        },
        {
          "internalType": "uint256",
          "name": "power",
          "type": "uint256"
        },
        {
          "internalType": "uint256",
          "name": "aggregateTimestamp",
          "type": "uint256"
        },
        {
          "internalType": "uint256",
          "name": "attestationTimestamp",
          "type": "uint256"
        },
        {
          "internalType": "uint256",
          "name": "relayTimestamp",
          "type": "uint256"
        }
      ],
      "stateMutability": "view",
      "type": "function"
    },
    {
      "inputs": [
        {
          "internalType": "bytes32",
          "name": "_queryId",
          "type": "bytes32"
        },
        {
          "internalType": "uint256",
          "name": "_index",
          "type": "uint256"
        }
      ],
      "name": "getAggregateByIndex",
      "outputs": [
        {
          "components": [
            {
              "internalType": "bytes",
              "name": "value",
              "type": "bytes"
            },
            {
              "internalType": "uint256",
              "name": "power",
              "type": "uint256"
            },
            {
              "internalType": "uint256",
              "name": "aggregateTimestamp",
              "type": "uint256"
            },
            {
              "internalType": "uint256",
              "name": "attestationTimestamp",
              "type": "uint256"
            },
            {
              "internalType": "uint256",
              "name": "relayTimestamp",
              "type": "uint256"
            }
          ],
          "internalType": "struct TellorLab.AggregateData",
          "name": "_aggregateData",
          "type": "tuple"
        }
      ],
      "stateMutability": "view",
      "type": "function"
    },
    {
      "inputs": [
        {
          "internalType": "bytes32",
          "name": "_queryId",
          "type": "bytes32"
        }
      ],
      "name": "getAggregateValueCount",
      "outputs": [
        {
          "internalType": "uint256",
          "name": "",
          "type": "uint256"
        }
      ],
      "stateMutability": "view",
      "type": "function"
    },
    {
      "inputs": [
        {
          "internalType": "bytes32",
          "name": "_queryId",
          "type": "bytes32"
        }
      ],
      "name": "getCurrentAggregateData",
      "outputs": [
        {
          "components": [
            {
              "internalType": "bytes",
              "name": "value",
              "type": "bytes"
            },
            {
              "internalType": "uint256",
              "name": "power",
              "type": "uint256"
            },
            {
              "internalType": "uint256",
              "name": "aggregateTimestamp",
              "type": "uint256"
            },
            {
              "internalType": "uint256",
              "name": "attestationTimestamp",
              "type": "uint256"
            },
            {
              "internalType": "uint256",
              "name": "relayTimestamp",
              "type": "uint256"
            }
          ],
          "internalType": "struct TellorLab.AggregateData",
          "name": "_aggregateData",
          "type": "tuple"
        }
      ],
      "stateMutability": "view",
      "type": "function"
    },
    {
      "inputs": [
        {
          "components": [
            {
              "internalType": "bytes32",
              "name": "queryId",
              "type": "bytes32"
            },
            {
              "components": [
                {
                  "internalType": "bytes",
                  "name": "value",
                  "type": "bytes"
                },
                {
                  "internalType": "uint256",
                  "name": "timestamp",
                  "type": "uint256"
                },
                {
                  "internalType": "uint256",
                  "name": "aggregatePower",
                  "type": "uint256"
                },
                {
                  "internalType": "uint256",
                  "name": "previousTimestamp",
                  "type": "uint256"
                },
                {
                  "internalType": "uint256",
                  "name": "nextTimestamp",
                  "type": "uint256"
                },
                {
                  "internalType": "uint256",
                  "name": "lastConsensusTimestamp",
                  "type": "uint256"
                }
              ],
              "internalType": "struct ReportData",
              "name": "report",
              "type": "tuple"
            },
            {
              "internalType": "uint256",
              "name": "attestationTimestamp",
              "type": "uint256"
            }
          ],
          "internalType": "struct OracleAttestationData",
          "name": "_attestData",
          "type": "tuple"
        },
        {
          "components": [
            {
              "internalType": "address",
              "name": "addr",
              "type": "address"
            },
            {
              "internalType": "uint256",
              "name": "power",
              "type": "uint256"
            }
          ],
          "internalType": "struct Validator[]",
          "name": "",
          "type": "tuple[]"
        },
        {
          "components": [
            {
              "internalType": "uint8",
              "name": "v",
              "type": "uint8"
            },
            {
              "internalType": "bytes32",
              "name": "r",
              "type": "bytes32"
            },
            {
              "internalType": "bytes32",
              "name": "s",
              "type": "bytes32"
            }
          ],
          "internalType": "struct Signature[]",
          "name": "",
          "type": "tuple[]"
        }
      ],
      "name": "updateOracleData",
      "outputs": [],
      "stateMutability": "nonpayable",
      "type": "function"
    },
    {
      "inputs": [
        {
          "internalType": "bytes32",
          "name": "_queryId",
          "type": "bytes32"
        },
        {
          "internalType": "bytes",
          "name": "_value",
          "type": "bytes"
        }
      ],
      "name": "updateOracleDataLab",
      "outputs": [],
      "stateMutability": "nonpayable",
      "type": "function"
    }
  ],
  "bytecode": "0x608060405234801561001057600080fd5b506115c1806100206000396000f3fe608060405234801561001057600080fd5b50600436106100625760003560e01c80631c23cf39146100675780636180801014610083578063717681c61461009f5780638d12c426146100cf578063cb95671114610103578063e3ac7e1114610133575b600080fd5b610081600480360381019061007c919061097d565b610163565b005b61009d60048036038101906100989190610ab3565b6102ab565b005b6100b960048036038101906100b49190610b9a565b61041f565b6040516100c69190610cde565b60405180910390f35b6100e960048036038101906100e49190610b9a565b610526565b6040516100fa959493929190610d59565b60405180910390f35b61011d60048036038101906101189190610db3565b610601565b60405161012a9190610cde565b60405180910390f35b61014d60048036038101906101489190610db3565b610619565b60405161015a9190610de0565b60405180910390f35b60006103e86001426101759190610e2a565b61017f9190610e5e565b90506000808481526020019081526020016000206040518060a001604052808481526020016000815260200183815260200183815260200142815250908060018154018082558091505060019003906000526020600020906005020160009091909190915060008201518160000190816101f991906110ac565b50602082015181600101556040820151816002015560608201518160030155608082015181600401555050827f32569c122e0d7a43079203df1373675696c8ccd8ca67de60dc2238b6bb22621460405180606001604052808681526020016040518060c00160405280878152602001868152602001600081526020016000815260200160008152602001600081525081526020018481525060405161029e9190611266565b60405180910390a2505050565b600080866000013581526020019081526020016000206040518060a001604052808780602001906102dc9190611297565b80600001906102eb91906112bf565b8080601f016020809104026020016040519081016040528093929190818152602001838380828437600081840152601f19601f8201169050808301925050505050505081526020018780602001906103439190611297565b60400135815260200187806020019061035c9190611297565b6020013581526020018760400135815260200142815250908060018154018082558091505060019003906000526020600020906005020160009091909190915060008201518160000190816103b191906110ac565b5060208201518160010155604082015181600201556060820151816003015560808201518160040155505084600001357f32569c122e0d7a43079203df1373675696c8ccd8ca67de60dc2238b6bb22621486604051610410919061153a565b60405180910390a25050505050565b6104276107be565b600080848152602001908152602001600020828154811061044b5761044a61155c565b5b90600052602060002090600502016040518060a001604052908160008201805461047490610ecf565b80601f01602080910402602001604051908101604052809291908181526020018280546104a090610ecf565b80156104ed5780601f106104c2576101008083540402835291602001916104ed565b820191906000526020600020905b8154815290600101906020018083116104d057829003601f168201915b50505050508152602001600182015481526020016002820154815260200160038201548152602001600482015481525050905092915050565b6000602052816000526040600020818154811061054257600080fd5b90600052602060002090600502016000915091505080600001805461056690610ecf565b80601f016020809104026020016040519081016040528092919081815260200182805461059290610ecf565b80156105df5780601f106105b4576101008083540402835291602001916105df565b820191906000526020600020905b8154815290600101906020018083116105c257829003601f168201915b5050505050908060010154908060020154908060030154908060040154905085565b6106096107be565b61061282610638565b9050919050565b6000806000838152602001908152602001600020805490509050919050565b6106406107be565b6000806000848152602001908152602001600020805490500361069e576040518060a00160405280604051806020016040528060008152508152602001600081526020016000815260200160008152602001600081525090506107b9565b6000808381526020019081526020016000206001600080858152602001908152602001600020805490506106d29190610e2a565b815481106106e3576106e261155c565b5b90600052602060002090600502016040518060a001604052908160008201805461070c90610ecf565b80601f016020809104026020016040519081016040528092919081815260200182805461073890610ecf565b80156107855780601f1061075a57610100808354040283529160200191610785565b820191906000526020600020905b81548152906001019060200180831161076857829003601f168201915b5050505050815260200160018201548152602001600282015481526020016003820154815260200160048201548152505090505b919050565b6040518060a0016040528060608152602001600081526020016000815260200160008152602001600081525090565b6000604051905090565b600080fd5b600080fd5b6000819050919050565b61081481610801565b811461081f57600080fd5b50565b6000813590506108318161080b565b92915050565b600080fd5b600080fd5b6000601f19601f8301169050919050565b7f4e487b7100000000000000000000000000000000000000000000000000000000600052604160045260246000fd5b61088a82610841565b810181811067ffffffffffffffff821117156108a9576108a8610852565b5b80604052505050565b60006108bc6107ed565b90506108c88282610881565b919050565b600067ffffffffffffffff8211156108e8576108e7610852565b5b6108f182610841565b9050602081019050919050565b82818337600083830152505050565b600061092061091b846108cd565b6108b2565b90508281526020810184848401111561093c5761093b61083c565b5b6109478482856108fe565b509392505050565b600082601f83011261096457610963610837565b5b813561097484826020860161090d565b91505092915050565b60008060408385031215610994576109936107f7565b5b60006109a285828601610822565b925050602083013567ffffffffffffffff8111156109c3576109c26107fc565b5b6109cf8582860161094f565b9150509250929050565b600080fd5b6000606082840312156109f4576109f36109d9565b5b81905092915050565b600080fd5b600080fd5b60008083601f840112610a1d57610a1c610837565b5b8235905067ffffffffffffffff811115610a3a57610a396109fd565b5b602083019150836040820283011115610a5657610a55610a02565b5b9250929050565b60008083601f840112610a7357610a72610837565b5b8235905067ffffffffffffffff811115610a9057610a8f6109fd565b5b602083019150836060820283011115610aac57610aab610a02565b5b9250929050565b600080600080600060608688031215610acf57610ace6107f7565b5b600086013567ffffffffffffffff811115610aed57610aec6107fc565b5b610af9888289016109de565b955050602086013567ffffffffffffffff811115610b1a57610b196107fc565b5b610b2688828901610a07565b9450945050604086013567ffffffffffffffff811115610b4957610b486107fc565b5b610b5588828901610a5d565b92509250509295509295909350565b6000819050919050565b610b7781610b64565b8114610b8257600080fd5b50565b600081359050610b9481610b6e565b92915050565b60008060408385031215610bb157610bb06107f7565b5b6000610bbf85828601610822565b9250506020610bd085828601610b85565b9150509250929050565b600081519050919050565b600082825260208201905092915050565b60005b83811015610c14578082015181840152602081019050610bf9565b60008484015250505050565b6000610c2b82610bda565b610c358185610be5565b9350610c45818560208601610bf6565b610c4e81610841565b840191505092915050565b610c6281610b64565b82525050565b600060a0830160008301518482036000860152610c858282610c20565b9150506020830151610c9a6020860182610c59565b506040830151610cad6040860182610c59565b506060830151610cc06060860182610c59565b506080830151610cd36080860182610c59565b508091505092915050565b60006020820190508181036000830152610cf88184610c68565b905092915050565b600082825260208201905092915050565b6000610d1c82610bda565b610d268185610d00565b9350610d36818560208601610bf6565b610d3f81610841565b840191505092915050565b610d5381610b64565b82525050565b600060a0820190508181036000830152610d738188610d11565b9050610d826020830187610d4a565b610d8f6040830186610d4a565b610d9c6060830185610d4a565b610da96080830184610d4a565b9695505050505050565b600060208284031215610dc957610dc86107f7565b5b6000610dd784828501610822565b91505092915050565b6000602082019050610df56000830184610d4a565b92915050565b7f4e487b7100000000000000000000000000000000000000000000000000000000600052601160045260246000fd5b6000610e3582610b64565b9150610e4083610b64565b9250828203905081811115610e5857610e57610dfb565b5b92915050565b6000610e6982610b64565b9150610e7483610b64565b9250828202610e8281610b64565b91508282048414831517610e9957610e98610dfb565b5b5092915050565b7f4e487b7100000000000000000000000000000000000000000000000000000000600052602260045260246000fd5b60006002820490506001821680610ee757607f821691505b602082108103610efa57610ef9610ea0565b5b50919050565b60008190508160005260206000209050919050565b60006020601f8301049050919050565b600082821b905092915050565b600060088302610f627fffffffffffffffffffffffffffffffffffffffffffffffffffffffffffffffff82610f25565b610f6c8683610f25565b95508019841693508086168417925050509392505050565b6000819050919050565b6000610fa9610fa4610f9f84610b64565b610f84565b610b64565b9050919050565b6000819050919050565b610fc383610f8e565b610fd7610fcf82610fb0565b848454610f32565b825550505050565b600090565b610fec610fdf565b610ff7818484610fba565b505050565b5b8181101561101b57611010600082610fe4565b600181019050610ffd565b5050565b601f8211156110605761103181610f00565b61103a84610f15565b81016020851015611049578190505b61105d61105585610f15565b830182610ffc565b50505b505050565b600082821c905092915050565b600061108360001984600802611065565b1980831691505092915050565b600061109c8383611072565b9150826002028217905092915050565b6110b582610bda565b67ffffffffffffffff8111156110ce576110cd610852565b5b6110d88254610ecf565b6110e382828561101f565b600060209050601f8311600181146111165760008415611104578287015190505b61110e8582611090565b865550611176565b601f19841661112486610f00565b60005b8281101561114c57848901518255600182019150602085019450602081019050611127565b868310156111695784890151611165601f891682611072565b8355505b6001600288020188555050505b505050505050565b61118781610801565b82525050565b600060c08301600083015184820360008601526111aa8282610c20565b91505060208301516111bf6020860182610c59565b5060408301516111d26040860182610c59565b5060608301516111e56060860182610c59565b5060808301516111f86080860182610c59565b5060a083015161120b60a0860182610c59565b508091505092915050565b600060608301600083015161122e600086018261117e565b5060208301518482036020860152611246828261118d565b915050604083015161125b6040860182610c59565b508091505092915050565b600060208201905081810360008301526112808184611216565b905092915050565b600080fd5b600080fd5b600080fd5b60008235600160c0038336030381126112b3576112b2611288565b5b80830191505092915050565b600080833560016020038436030381126112dc576112db611288565b5b80840192508235915067ffffffffffffffff8211156112fe576112fd61128d565b5b60208301925060018202360383131561131a57611319611292565b5b509250929050565b60006113316020840184610822565b905092915050565b600080fd5b60008235600160c00383360303811261135a57611359611339565b5b82810191505092915050565b600080fd5b600080fd5b6000808335600160200384360303811261138d5761138c611339565b5b83810192508235915060208301925067ffffffffffffffff8211156113b5576113b4611366565b5b6001820236038313156113cb576113ca61136b565b5b509250929050565b60006113df8385610be5565b93506113ec8385846108fe565b6113f583610841565b840190509392505050565b600061140f6020840184610b85565b905092915050565b600060c0830161142a6000840184611370565b858303600087015261143d8382846113d3565b9250505061144e6020840184611400565b61145b6020860182610c59565b506114696040840184611400565b6114766040860182610c59565b506114846060840184611400565b6114916060860182610c59565b5061149f6080840184611400565b6114ac6080860182610c59565b506114ba60a0840184611400565b6114c760a0860182610c59565b508091505092915050565b6000606083016114e56000840184611322565b6114f2600086018261117e565b50611500602084018461133e565b84820360208601526115128282611417565b9150506115226040840184611400565b61152f6040860182610c59565b508091505092915050565b6000602082019050818103600083015261155481846114d2565b905092915050565b7f4e487b7100000000000000000000000000000000000000000000000000000000600052603260045260246000fdfea26469706673582212204132f59951cfd996a8cb88a81e3308d97bcdfa24fca5292bc6d8239a2d2018eb64736f6c63430008130033",
  "linkReferences": {},
  "deployedLinkReferences": {}
}